:020000040800F2
:1000000000200020F53900088537000887370008F0
:1000100000000000000000000000000000000000E0
:100020000000000000000000000000008937000808
:1000300000000000000000008B3700088D3700082A
:10004000453A0008453A0008453A0008453A000894
:10005000453A000895370008B1370008453A0008CE
:1000600000000000453A0008453A0008453A0008FB
:10007000453A0008453A000800000000453A0008EB
:100080000000000000000000000000000000000070
:10009000453A000800000000453A0008453A0008CB
:1000A00000000000453A00080000000000000000C9
:1000B000E1370008453A0008000000000000000099
:1000C00010B5064C2378002B07D1054B002B02D02E
:1000D000044800E000BF0123237010BD000200208F
:1000E00000000000AC4D0008044B10B5002B03D0FD
:1000F0000349044800E000BF10BDC04600000000F6
:1001000004020020AC4D000802780B78002A03D0CE
:10011000013001319A42F7D0D01A70470023C25CF7
:100120000133002AFBD1581E7047000003B471460A
:10013000490840004900095E49008E4403BC7047ED
:10014000002243088B4274D303098B425FD3030A16
:100150008B4244D3030B8B4228D3030C8B420DD329
:10016000FF22090212BA030C8B4202D312120902B7
:1001700065D0030B8B4219D300E0090AC30B8B42F5
:1001800001D3CB03C01A5241830B8B4201D38B03A3
:10019000C01A5241430B8B4201D34B03C01A524148
:1001A000030B8B4201D30B03C01A5241C30A8B428B
:1001B00001D3CB02C01A5241830A8B4201D38B0276
:1001C000C01A5241430A8B4201D34B02C01A52411A
:1001D000030A8B4201D30B02C01A5241CDD2C3098C
:1001E0008B4201D3CB01C01A524183098B4201D308
:1001F0008B01C01A524143098B4201D34B01C01AF3
:10020000524103098B4201D30B01C01A5241C3086A
:100210008B4201D3CB00C01A524183088B4201D3D9
:100220008B00C01A524143088B4201D34B00C01AC5
:100230005241411A00D20146524110467047FFE731
:1002400001B5002000F0F0F802BDC0460029F7D04B
:1002500076E7704703460B437FD4002243088B4266
:1002600074D303098B425FD3030A8B4244D3030B3D
:100270008B4228D3030C8B420DD3FF22090212BA02
:10028000030C8B4202D31212090265D0030B8B427E
:1002900019D300E0090AC30B8B4201D3CB03C01A68
:1002A0005241830B8B4201D38B03C01A5241430B43
:1002B0008B4201D34B03C01A5241030B8B4201D333
:1002C0000B03C01A5241C30A8B4201D3CB02C01A9E
:1002D0005241830A8B4201D38B02C01A5241430A16
:1002E0008B4201D34B02C01A5241030A8B4201D305
:1002F0000B02C01A5241CDD2C3098B4201D3CB01AC
:10030000C01A524183098B4201D38B01C01A52415A
:1003100043098B4201D34B01C01A524103098B425E
:1003200001D30B01C01A5241C3088B4201D3CB0049
:10033000C01A524183088B4201D38B00C01A52412C
:1003400043088B4201D34B00C01A5241411A00D2DC
:1003500001465241104670475DE0CA0F00D0494245
:10036000031000D34042534000229C4603098B42B5
:100370002DD3030A8B4212D3FC22890112BA030A3D
:100380008B420CD3890192118B4208D389019211BF
:100390008B4204D389013AD0921100E08909C30944
:1003A0008B4201D3CB01C01A524183098B4201D346
:1003B0008B01C01A524143098B4201D34B01C01A31
:1003C000524103098B4201D30B01C01A5241C308A9
:1003D0008B4201D3CB00C01A524183088B4201D318
:1003E0008B00C01A5241D9D243088B4201D34B0033
:1003F000C01A5241411A00D20146634652415B1075
:10040000104601D34042002B00D549427047634655
:100410005B1000D3404201B5002000F005F802BD9A
:100420000029F8D016E770477047C046002B15D159
:10043000002A13D1002906DB01DC002806D00020A9
:10044000C043410802E080210906002007B40248A9
:1004500001A14018029003BDD1FFFFFF03B468461D
:1004600001B5029800F01AF9019B9E4602B00CBC3F
:100470007047C046002B11D1002A0FD1002900D1AE
:10048000002802D00021C943081C07B4024802A179
:100490004018029003BDC04691FFFFFF03B46846B9
:1004A00001B5029800F02EF8019B9E4602B00CBCEC
:1004B0007047C046F0B515042D0C0F0001002E004A
:1004C000C64684460004140C000C090C46434D43F8
:1004D000604361434019340C241800B5A54203D988
:1004E0008020400280464144250C6D1861465943E6
:1004F0007A43300449192404000C2018891880BC60
:10050000B846F0BDF0B557464E464546DE46E0B526
:1005100004000D009246994683B08B4230D82DD00E
:100520004946504600F0F6F829000600200000F089
:10053000F1F8331A9846203B9B4633D45A4653462B
:10054000934042461F00534693401E00AF423AD8A4
:10055000AF4200D178E05B46A41BBD41002B00DA1E
:1005600075E0002200230092019301235A46934034
:100570000193012342469340009328E08242CFD961
:1005800000220023009201930C9B002B01D01C60E1
:100590005D600098019903B0F0BCBB46B246A94625
:1005A000A046F0BD424620239B1A5246DA404146FF
:1005B00013004A468A40170042461F435346934061
:1005C0001E00AF42C4D9002200230092019343468B
:1005D000002BD9D0FB0772081A4346467B080EE071
:1005E000AB4201D1A2420CD8A41A9D41012024198A
:1005F0006D410021013E24184D41002E06D0AB4232
:10060000EED9013E24196D41002EF8D100980199D0
:100610005B4600196941002B24DB2B005A464446F7
:10062000D3402A00E2401C005B461500002B2ADB69
:1006300026009E40330026004746BE403200801A06
:100640009941009001919FE7A342BCD883E74246BD
:10065000202300219B1A0022009101920122DA40FE
:10066000019286E7424620239B1A2A0046469A407A
:100670002300F340444613432A00E2401C005B463B
:100680001500002BD4DA42462F0020232600974085
:100690009B1ADE403B003343CDE7C046F8B5CE465B
:1006A000474680B59146984604000D0000F03EF89C
:1006B00007000E0002000B0048464146FFF7FAFE15
:1006C000241A8D41089B380031001C605D60C0BC5D
:1006D000B946B046F8BDC0461C2101231B04984210
:1006E00001D3000C10391B0A984201D3000A0839C3
:1006F0001B09984201D30009043902A2105C40187A
:100700007047C0460403020201010101000000001D
:100710000000000010B5002903D1FFF7DDFF2030F5
:1007200002E0081CFFF7D8FF10BDC046F0B55746E1
:100730004E464546DE46E0B50F0019000023060090
:100740009846100083B0002F07DA33003C000027E2
:100750005E42A74101235B429846002907DA4346DF
:10076000DB430C009846030000215842A1413400AD
:100770003D0082468946B9426AD867D0494650460C
:10078000FFF7C8FF834639003000FFF7C3FF5B4621
:100790001B1A9C46203B9B466BD4584651468140D1
:1007A00060460B00514681400A00BB4200D972E00E
:1007B000BB4200D179E034003D005946A41A9D4166
:1007C000002900DA74E00021002001260090019148
:1007D00059468E400196614601268E40614600963C
:1007E00000295FD0D90756080E435F0861460122F1
:1007F00000230CE0AF4201D1A6420AD8A41BBD41A0
:1008000024196D410139A4185D41002906D0AF4279
:10081000F0D9013924196D410029F8D100980199C6
:100820005B4600196941002B4DDB2E002C00DE4099
:100830006346DC405B46002B55DB34009C402300C4
:100840006446A6403200801A994103E0B04295D92F
:10085000002000214346002B04D003000C0000219F
:100860005842A14103B0F0BCBB46B246A946A046DF
:10087000F0BD624648462023514690409B1AD9401D
:1008800003000091009960460B43514681400A00E5
:10089000BB4200D88CE70021002000900191614606
:1008A00000299FD100980199D4E7B142F3D882E79B
:1008B000614620260127761A00200021F74000908B
:1008C0000191019787E7624620239B1A2A009A40EC
:1008D000260013006246D6402C001E436346DC40CF
:1008E0005B46002BA9DA62462023350094409B1A10
:1008F000DD4023002B43A3E710B503000079002857
:1009000050D01A68002A57D05879012818D00228E8
:1009100020D000280BD001209A79002A4BD0022A3F
:100920002CD0032A34D0012A1ED0012043E02349D1
:100930004C6894434C600A681C6822430A60EBE7E9
:100940001E490868904308604A68186802434A6074
:100950000020E1E71949086802430A604A681868FC
:1009600002434A600020D7E7144AD1681C68A143BB
:10097000D1601B6891680B4393601CE00F4A91683B
:100980001C68A14391601B68D1680B43D36012E0DF
:100990000A4A91681C68214391601B68D1680B4327
:1009A000D36008E0054A11681C68A143116019680A
:1009B00053688B43536010BD0020FCE700040140E6
:1009C000F0B5002227E083682C006C4366003619DE
:1009D000B3438E687443234383600C684368A34326
:1009E000CE68744323434360C6682B006B435F00AB
:1009F000FF18FC43A446BE430F695F433E43C660F5
:100A00004C68022C16D0046865462C404D686B4338
:100A10002343036001320C682300D34026D0012316
:100A2000934025001D401C42F4D04B68013B012B34
:100A3000DAD8C8E7FF2D0BD8066A1C006C43654363
:100A40002C01641BA6434C69654335430562DAE714
:100A5000466A2D0A2C006C436C4365432C01641BD1
:100A6000A6434C69654335434562CCE70020F0BDA1
:100A700030B502680124A24302600368174A13409C
:100A8000CA6812028D682A43134303604B680361EE
:100A90000368234303608368114A134083608368BB
:100AA000DB0ADB020A698C692243134383600B690A
:100AB000002B04D0826880231B02134383600368E9
:100AC000084A13400A68134303604B6942680449AB
:100AD0000A4013434360002030BDC046FFE0FFFFE3
:100AE000FF7FFFFFFFFFCFFF044BDA6812090F23E0
:100AF0001340034AD35CD8407047C0460010024000
:100B0000C0500008044BDA68120A07231340034A56
:100B1000D35CD8407047C04600100240D050000857
:100B200010B50E4BDB68DB0305D40C4B1B68DB06F2
:100B300012D50B4800E00B480849CA68920C0F23F5
:100B40001340094AD35C5843CB689B0D03211940DD
:100B50000131FFF7F5FA10BD0448EDE7001002403F
:100B600000093D0000127A00B45000080024F4008F
:100B700010B5174BDA680C231340082B23D009D883
:100B8000002B0CD0042B14D1114B1B68DB061CD599
:100B9000104819E00C2B0CD1FFF7C2FF14E00C4BEE
:100BA0005A68520B072313400133802000029840FB
:100BB0000AE0074B5A68520B072313400133802089
:100BC0000002984000E0044810BD0448FCE7C0461D
:100BD0000010024000093D0000127A000024F400D9
:100BE00010B50C2801D0002010BD194BDB6C034060
:100BF00000041843174B98420FD0174B984219D056
:100C0000164B984206D0FFF7B3FFFFF76DFFFFF7D3
:100C100079FFE9E7FFF7ACFFE6E70D4B1B6804221D
:100C2000100018401A42DFD0094B1B68DB060CD4B9
:100C30000B48D9E7064B1A6D80239B001000184023
:100C40001A42D1D080200002CEE70648CCE7C04649
:100C50000010024008000C000C000C0004000C0006
:100C60000024F40000093D0010B582B00400FA230E
:100C70009B000193C3685B0623D401235B42C360DE
:100C8000C3684022110019401A4218D10020019B6C
:100C9000002B17D0012915D00B4B1B68DB0302D5A5
:100CA000019B013B0193E3684022110019401A4265
:100CB00000D00121019B002BE9D10120E7E70121B0
:100CC000E4E7002002B010BD10E000E070B50400C1
:100CD0000D00CA234362773B4362FFF7C5FF01283B
:100CE00016D0A368402293432A681343A360236964
:100CF000DB0BDB03AA68134323616A682369064997
:100D00000B4012041343236181235B42E360002004
:100D1000FF23636270BDC046FFFF80FF10B503680C
:100D20005B0628D40368154A1A400B684C682343B5
:100D30008C682343CC6823430C6923434C692343C9
:100D40008C692343CC6923430C6A23431343036018
:100D5000436804229343CA8A1343436080239B0160
:100D60000A6A9A4201D0002006E04B6A1B041B0C61
:100D70000361002000E0012010BDC0464000FFFFDD
:100D800070B504000D000368DB0740D40368234AF4
:100D90001A404B68C9680B4329690B43A9690B4387
:100DA0001343036043681E4A1340AA681343436019
:100DB00083681C4A13406A69134383601A4B984244
:100DC00001D0012024E00C20FFF70AFF002820D0EA
:100DD000296800291FD0AA6980231B029A4208D0E3
:100DE0004B08C018FFF7ACF90004000CE0600020CD
:100DF0000EE040004B08C018FFF7A2F90B4B034070
:100E00004008072210401843E060002000E0012065
:100E100070BD0120FCE70120FAE7C046F369FFEF4F
:100E2000FFCFFFFFFFFCFFFF00440040F0FF00008A
:100E300010B5FA218900FFF783F90138034B586098
:100E400000229A6005321A6010BDC04610E000E032
:100E500082B0084B1B680193019B431C00D00130FA
:100E6000002805D0034B1B68DB03F9D50138F7E7F1
:100E700002B0704710E000E0014B18607047C046B8
:100E80003C00002030B583B000290AD180390843E6
:100E900001A90870012080B201A900F003FF03B08E
:100EA00030BD40246442204301AC20707F2902D829
:100EB00061700220EFE7CDB201AC802040422843B0
:100EC0006070C909A1700320E5E710B50B0011009F
:100ED00014188022D200944205DC821E0920FFF7FC
:100EE000D1FF002010BD01204042FBE730B583B0A8
:100EF000002908D101A90870012080B201A900F0E1
:100F00000DFF03B030BD4024204301AC20707F2989
:100F100002D861700220F0E7CDB201AC80204042DF
:100F200028436070C909A1700320E6E710B50300EB
:100F30000C00110022001120FFF7D8FF10BD0000A7
:100F400000B583B001AB032228212720FFF7CEFF95
:100F50000223002004E0000201AAD25C8018013BB9
:100F6000002BF8DAC30203D5034B184303B000BDCE
:100F7000C002C00AFAE7C0460000F0FF10B5030047
:100F8000052200211520FFF7B1FF10BD00B583B089
:100F900089B280B201AB0422FFF7A8FF032300202F
:100FA00004E0000201AAD25C8018013B002BF8DAB1
:100FB00003B000BD10B500210020FFF7E7FF10BD12
:100FC00010B500211720FFF7E1FF10BD10B500217B
:100FD0001520FFF7DBFF10BD00B583B089B280B2EA
:100FE00001AB0222FFF782FF6B46587900021B79A2
:100FF000C01880B203B000BD10B504000521152053
:10100000FFF7EAFFE08100212E20FFF7E5FF2080B7
:10101000231D082200211220FFF768FF0721152059
:10102000FFF7DAFF608000211020FFF7AFFF000D0F
:10103000A08110BD10B582B06B46DC1D89B280B2B4
:1010400023000122FFF752FF207802B010BD00B547
:1010500083B06B4607331A7089B280B20122FFF762
:1010600011FF03B000BD10B5040047222821312034
:10107000FFF7EDFF012C05D020220A212720FFF7E2
:10108000E6FF10BD0E220A212720FFF7E0FFF8E758
:1010900000B583B06B461A71120A5A7189B280B2D8
:1010A00001AB0222FFF7EEFE03B000BD10B5020057
:1010B00002492E20FFF7ECFF10BDC04604180000C7
:1010C00010B5020000211820FFF7E2FF10BD10B597
:1010D00082B0002303E001ACE254120A0133032B77
:1010E000F9DD89B280B201AB0422FFF7CBFE02B07A
:1010F00010BD000010B5064B1B68DB68184389055E
:101100000843D203024300210820FFF7E0FF10BD8F
:101110000000002010B5020004212D20FFF7B8FFC9
:10112000032206212D20FFF792FF002206212D2009
:10113000FFF78DFF0A212D20FFF728FF10BD0000CB
:10114000F0B5D6464F464646C0B582B0040001AB66
:1011500003221A70023A07212D20FFF793FE0F2079
:101160002040052800D9B7E080005D4B1B589F4602
:1011700000250026002301AC23701B0A63702300A6
:10118000022200212D20FFF77DFE082398462370C0
:101190002300012206212D20FFF774FE022000F01B
:1011A00075FD022323702300012207212D20FFF764
:1011B00069FE88239A4623702300012206212D20F0
:1011C000FFF760FE80239946237023000122062149
:1011D0002D20FFF757FE002727702300012206214C
:1011E0002D20FFF74FFE0523237023000122072146
:1011F0002D20FFF747FE2670360A66702300022274
:1012000000212D20FFF73EFE4346237023000122DC
:1012100006212D20FFF736FE022000F037FD0423C3
:1012200023702300012207212D20FFF72BFE5346B8
:1012300023702300012206212D20FFF723FE4B46B9
:1012400023702300012206212D20FFF71BFE2770AB
:101250002300012206212D20FFF714FE0123237015
:101260002300012207212D20FFF70CFE25702D0AF7
:1012700065702300022200212D20FFF703FE434664
:1012800023702300012206212D20FFF7FBFD022001
:1012900000F0FCFC27702300012207212D20FFF71E
:1012A000F1FD002002B0E0BCBA46B146A846F0BD50
:1012B0000C4D03260C4B5EE70A4D4E260A4B5AE7AF
:1012C00000250326002356E724250326002352E7A2
:1012D000064D0E26044B4EE701204042E2E7C04691
:1012E000C44D0008241800002092000024100000C3
:1012F00010B5002202212C20FFF7A9FE02220221B4
:101300002C20FFF7A4FE10BD10B504006D22094982
:101310002E20FFF79CFE002C05D0074A07492E20FF
:10132000FFF7B6FE10BD064A04492E20FFF7B0FEB7
:10133000F8E7C0460608000007060000061800008F
:1013400007160000F8B5CE46474680B5040006787B
:1013500043795B007E4A9F5A4578013DEDB2042EE9
:1013600000D1CFE0072E00D1C9E000239846E379F1
:10137000002B00D0C9E0774B1A688023DB0311698A
:101380000B431361FF08734B1968237A8B72724AFF
:101390000B691A400A61237A1B04C02080020340B3
:1013A0001A430A6100210420FFF791FE3A006B49BD
:1013B0002E20FFF76DFE2800FFF7A6FF684B9B5D10
:1013C00099469F00674BFA5807212B20FFF77FFEB5
:1013D000654B4A469A5C0B212B20FFF738FE634B86
:1013E00042469A5C0B212820FFF731FE604BFA58E9
:1013F0000C212820FFF76BFEE379A2795B009B1894
:101400005B005C4A9A5A02212720FFF741FE6B00DD
:10141000594A9A5A04212720FFF73AFEE379002B14
:1014200000D179E0A378042B00D17BE020220621B3
:101430002720FFF72DFE282226212720FFF707FE71
:10144000E278AB009B189B004C4A9A580821272051
:10145000FFF73DFE6389002B01D1494B638162890F
:1014600020212720FFF714FE464F3A680C21232045
:10147000FFF72DFE6D007D19AA8804212320FFF7B8
:1014800007FEA379002B58D119000F2232403601F4
:10149000FF200640324360788004C0252D03284099
:1014A00002431B05C020800303401A434B048021E4
:1014B00089020B401A4323799B05F821C9040B408C
:1014C0001A436379DB061A4300211F20FFF7FFFD53
:1014D000A27863781A431204E3795B031D49096813
:1014E0001A43CA6000210820FFF7F1FD42220021C3
:1014F0000D20FFF7ACFDC0BCB946B046F8BD0123D6
:10150000984634E70123984631E7124B1A681E4B80
:1015100011690B40136136E7642206212720FFF78B
:10152000B7FD8DE7102206212720FFF7B1FD10221D
:1015300026212720FFF78BFD82E7E379134AD25C4F
:1015400000212120FFF783FD012103239DE7C046F1
:10155000184E000800000020FFFFFCFF04280000D8
:10156000C44E0008944E00088C4E0008884E0008B7
:10157000AC4E0008704E00086C4E00084C4E00083F
:1015800041100000804E0008FFFFBFFF7C4E0008A6
:1015900010B5040000211A20FFF7F8FC000D00052B
:1015A0002203120B024300211A20FFF790FD10BD09
:1015B00070B50400C3072ED500212620FFF7E6FCF6
:1015C0001A4A1040A0225201024300212620FFF7B0
:1015D0007EFD00213620FFF7D9FC8422120402434D
:1015E00000213620FFF773FD02231D002540234212
:1015F0000FD188246400220028213620FFF767FDE0
:10160000002D12D00A4A224028213620FFF75FFD24
:101610000BE0084CEFE700212620FFF7B7FC034A58
:10162000024000212620FFF752FD70BDFFC3FFFFDF
:10163000FFFFF0FF10010F0010B582B0040001ABF6
:10164000022200213620FFF751FC0E2C0AD8A400FC
:101650002E4B1B599F4601AB00221A705A7801216C
:101660008A435A7001AB012200213620FFF70AFCA1
:101670006B460533012201213620FFF703FC02B03F
:1016800010BD01AA0023D35603218B4301210B4334
:101690001370E7E701AA0023D35603218B430221ED
:1016A0000B431370DEE701AA0023D3564C218B4372
:1016B00048210B431370517880235B420B435370D6
:1016C000D0E701AB1A784C218A431A7059787F22EF
:1016D0000A405A70C6E701AA537802210B4353709F
:1016E000C0E701AA537802218B435370BAE701AADD
:1016F0000023D35630218B4320210B431370B1E7D5
:1017000001AB01221A7002325A70ABE7DC4D0008BF
:1017100010B50E20FFF790FF8022120206212D2027
:10172000FFF7B6FC012000F0B1FA0120FFF784FFBB
:1017300010BD10B50020FFF77FFF002204213620E6
:10174000FFF7A6FC10BD10B5020001210A20FFF72B
:10175000BEFC10BD10B502231A000240034204D0A3
:10176000144B1B6801225A757F32C30718D5062314
:101770001A43D2B200210D20FFF769FC03210F208C
:10178000FFF72AFC8123DB00184201D100200FE083
:10179000402200210D20FFF75AFC0120404207E0C3
:1017A00002231A43D2B200210D20FFF750FC002083
:1017B00010BDC0460000002010B503210F20FFF728
:1017C00039FC43005840030600D410BD0122032118
:1017D0000D20FFF73CFCF8E770B500210E20FFF765
:1017E000D5FB050000F0DCFB0400002200210E20E8
:1017F000FFF76DFC402200210D20FFF728FC0A4A6C
:1018000000210F20FFF763FCFFF7D6FF2A0000211D
:101810000E20FFF75CFC200000F0C4FB034B1B68AC
:1018200000225A7570BDC046F8FF27240000002032
:1018300070B5040043070ED501231D002540234247
:101840000CD18022520000210D20FFF721FC002D39
:1018500007D1280070BDFFF7AFFFEDE7C02292006F
:10186000F1E703210F20FFF7E5FB030701D4002573
:10187000EFE7FFF7B1FFA30702D501256D42E8E7C7
:101880008022520000210D20FFF702FCF5E7000046
:1018900070B5050003210420FFF7CCFB0400002DE8
:1018A00013D02A0000210C20FFF7F2FB1022224364
:1018B000D2B20D4B196880235B05086903430B61A5
:1018C00003210420FFF7C3FB70BD10239C43E2B249
:1018D000054B1968054B086903400B61032104207F
:1018E000FFF7B5FBF0E7C04600000020FFFFFFEF69
:1018F00010B5E02203213620FFF7A9FBF0220321D7
:101900003620FFF7A4FB10BD70B5544B1D680021B5
:101910000F20FFF73BFB0400E86143040BD42306D0
:1019200057D488239B031C4200D06BE04C4B1C42D5
:1019300000D07DE070BDDE22D20100210F20FFF734
:10194000C6FB464D242300222968CA5400211020DA
:10195000FFF742FB8205920D2B68997A002901D18D
:101960007F2202401A8402041FD422330222002163
:101970001120FFF7BBFA230705D5384B1A6822233D
:10198000D35C9B0617D5354B1868C36A002B01D072
:101990001C309847314B1B681B7D002BBFD00122A8
:1019A00003210D20FFF753FBB9E724215A5C0120E6
:1019B00002435A54D9E7082200210F20FFF787FB82
:1019C000264B1B680822D9699143D96100225A75B8
:1019D000D9E7F82200210F20FFF779FB230704D570
:1019E0001E4B1B685B7D002B07D11C4B1868836A5C
:1019F000002B96D01C30984793E7FFF7EDFEFFF7DA
:101A000077FFF2E78022920200210F20FFF75FFBB1
:101A1000124D00232A685375FFF7DEFEFFF768FFBB
:101A20002868036B002B00D180E71C3098477DE7C6
:101A30001A0000210F20FFF74AFB084C0023226800
:101A40005375FFF7C9FEFFF753FF2068436B002B68
:101A500000D16FE71C3098476CE7C04600000020BB
:101A60000090052410B5FFF764FE002200212C2011
:101A7000FFF70EFB002206212C20FFF7E8FAFFF704
:101A800037FC002203213620FFF7E1FA012000F0A5
:101A9000FDF8F02203213620FFF7D9FA024B1B682C
:101AA00000225A7510BDC0460000002010B51F224C
:101AB00002406020024352B2D2B20E212B20FFF727
:101AC000C6FA10BD70B504006C4B1B6800221A7575
:101AD0005A75DA829A62DA621A635A63FFF76AFA0F
:101AE000674B984200D0C6E002231D0025402342E8
:101AF00020D0002D02D0F823234202D10020FFF78E
:101B00009BFD042200212420FFF7A1FA002D21D102
:101B10000420FFF7FFFAFF2303420ED1002D28D047
:101B20000A2323400A2B24D0544B1B680022DA726C
:101B3000002026E0FFF796FFDBE7022212212D208E
:101B4000FFF785FA4D4B1A68D18A80235B010B435E
:101B5000D382E3E730212820FFF718FA494B984257
:101B6000DCD0464B1A68D18A80235B010B43D382B9
:101B7000D4E71E20FFF7CEFA80B2404B1B68020A62
:101B8000DA72002D05D1C30600D11020C0B2FFF7D4
:101B90008DFFE3063DD4394B1B6800221A60A30673
:101BA0003ED4364B1B6800225A6063063FD4334B49
:101BB0001B6800221A72230640D4304B1B68002297
:101BC0005A72002D4DD1E3073FD5FFF7A1FD2B4BF6
:101BD0001A68D18A80231B010B43D3820120FFF7AF
:101BE0002BFD00220A212C20FFF731FA234C256817
:101BF00000210420FFF7CAF928612468628A0323C0
:101C00001340A37200210820FFF7C0F9E060002014
:101C100070BD1A4B1E680620FFF77CFA3060BEE7E5
:101C2000164B1E680720FFF775FA7060BDE70820A5
:101C3000FFF770FA114B1B681872BCE70920FFF719
:101C400069FA0E4B1B685872BBE705213620FFF777
:101C5000C3F90D4A024092B205213620FFF718FA67
:101C6000BCE76307BAD4054B1A68D18A80231B01ED
:101C70000B43D382B2E701204042C9E700000020B5
:101C80003001CADE88888888FFFDFFFF10B5040098
:101C900000F04AF9041900F047F9001B0028FADDAA
:101CA00010BD0000F0B5C64600B505008846160018
:101CB0001F0000F075F9174B01229A626C1EA4B246
:101CC000002D11D0144DAD68AB07FBD543461A78F3
:101CD000114B1A7301239C46E0442500EEE7397846
:101CE0000D4A117301371E00731E002E04D00A4ADC
:101CF00092689207FBD5F2E7074B9B681B06FBD463
:101D0000044B01229A6100F04DF9002080BCB846D6
:101D1000F0BDC0460004005000300140F0B5C6469A
:101D200000B50500884617001E001F4B9B681B0668
:101D3000FBD400F035F91D4B01229A626C1EA4B24F
:101D4000002D0CD0184B9D68AB07FBD543461A7885
:101D5000154B1A7301239C46E0442500EEE7124B15
:101D60009B681B06FBD4104BDB6804E00E4AD2686C
:101D7000327001361F007B1E002F0BD00A4A92687A
:101D80009207FBD5084A00211173074A9268D207CF
:101D9000FBD5EBE7054B01229A6100F003F9002027
:101DA00080BCB846F0BDC046003001400004005081
:101DB000044BDB691B06FBD5FF230340014A9362FA
:101DC0007047C0460044004070B516000024B4427D
:101DD00006DA4D1C0878FFF7EBFF01342900F6E71F
:101DE000300070BD014B18787047C0465402002087
:101DF00010B50400FFF7DCFF1C4BDB695B06FBD56D
:101E00001B4B01221A701B4B1B78002B13D1082C83
:101E10000DD00D2C22D017494A68531C4B6016492F
:101E20008C54FF2B07D9134B01221A7003E0114B7E
:101E30005B68002B00D110BD2020FFF7B9FF082000
:101E4000FFF7B6FF094BDB695B06FBD5094A536810
:101E5000013B5360084A0021D154ECE7054B0122B5
:101E60001A705B68044A0021D154E4E70044004042
:101E700078030020540200205C02002010B50A0004
:101E800001000020FFF7A0FF10BD00000FB400B557
:101E9000C3B044AB04CB01938021490002A801F0F8
:101EA0004FFF002807DB80235B00984203D8064BD6
:101EB0005B68002B03D043B008BC04B01847010096
:101EC00002A8FFF7DBFFF6E754020020F0B5C64694
:101ED00000B505000C0072B60D4B5E6832008E42F4
:101EE00000D90A000B49280001F0E0FD084B984694
:101EF00000275F60013C2C1927700A20FFF758FF6C
:101F000043461F7062B6300080BCB846F0BDC04684
:101F1000540200205C020020024A1368013313605F
:101F20007047C0465C030020014B18687047C046EC
:101F30005C0300200C4B9B681B06FBD40A4B9B6880
:101F4000DB0701D5084BDB68074B1968402081434C
:101F500019601A6838218A4320390A431A601A68BE
:101F600002431A607047C046003001400B4B9B682B
:101F70001B06FBD4094B9B68DB0701D5074BDB68CD
:101F8000064B196840208143196019683822914333
:101F900019601A6802431A607047C0460030014059
:101FA000002070477047000070B586B0022500958C
:101FB0000123019300240294039404950A4E694678
:101FC0003000FEF7FDFCB5620120FEF741FF0095F1
:101FD0000194049469463000FEF7F2FC0520FEF7F8
:101FE00037FF06B070BDC04600040050C30702D5DD
:101FF000084B08229A61830703D5A023DB05022240
:102000009A61030704D5A023DB05802252009A6160
:102010007047C04600040050C30702D5084B082291
:102020009A62830703D5A023DB0502229A62030785
:1020300004D5A023DB05802252009A627047C04677
:1020400000040050A023DB0510229A6170470000B5
:10205000014B01221A7170475C030020064B1A687D
:102060009B68D31AFA2189008B4204D9024B9A60EB
:10207000024B01221A7070475C03002038000020D8
:102080007047000070B5414AD369116890680F220B
:1020900014001C401A4203D19A0601D58A0617D4AF
:1020A000002C08D0012215000540024216D1203232
:1020B000FF32114212D1DA0201D542025AD41A0675
:1020C00001D50A0603D45B0601D54B0657D470BD73
:1020D0002E4B586AC0B2FFF78BFEF8E701221400BE
:1020E0001C401A4208D0FF320C001440114203D0A9
:1020F000264A0120106201249A0706D5002D04D03B
:10210000224A02201062042214435A0706D5002DE9
:1021100004D01E4A04201062022214431A0707D575
:102120008A0601D4002D03D0082218480262144305
:10213000002CCCD09B0601D58B060FD4134B9B688B
:102140005B0601D4230712D5104B9B685B060BD5A9
:102150000E4A936840218B439360B8E70B4B586A53
:10216000C0B2FFF745FEE9E7FFF78AFFAFE7FFF7E9
:1021700087FFACE7054B802252031A62A7E7034AA8
:10218000136840218B431360A1E7C0460044004020
:1021900011B5FFB004006A46114B03CB03C21B7894
:1021A00013702000FDF7BAFFFB235B00984208D3B1
:1021B0006846FDF7B3FF01006846FFF75FFE7FB09A
:1021C00011BD21006B46981D01F086FD2000FDF732
:1021D000A5FF063068440322024901F067FCE7E7E7
:1021E000C851000880520008F0B5C64600B58CB052
:1021F00005001C22002105A801F061FC00230493C6
:10220000039306E00A70039B01330393EB5C002BFE
:102210000AD0039BE918EA5C2D4B985C032303402A
:10222000022BEFD1203AEDE70AAB05AA2949280095
:1022300001F028FD00230393002601E001340394FC
:10224000039C63001B199B00234A9F58002F1AD040
:1022500063001B199B00204E9E19390005A8FDF74D
:1022600053FF0028EAD105A8FDF758FF8046380043
:10227000FDF754FF8045E1D1012304937368002BDF
:10228000DCD102330493049B012B05D0022B08D030
:102290000CB080BCB846F0BD03A91048FFF778FF2A
:1022A000F6E700F037FC0100B3680A9A01922800B3
:1022B0009847041E0B9006D0FDF730FF0100200068
:1022C000FFF7DCFDE4E703A90548FFF761FFDFE75F
:1022D0001D560008D4510008D44E0008DC510008F7
:1022E000F0510008D2B20A714A7101487047C046E5
:1022F000CC4E0008531E9A418A7101487047C0466F
:10230000CC4E0008531E9A410A7201487047C046DD
:10231000CC4E000893B2FF2002408A721B0ACB7297
:1023200000487047CC4E0008531E9A410A7600239D
:102330004B7601487047C046CC4E00080A73130A1A
:102340004B73130C8B73120ECA7301487047C0464F
:10235000CC4E00080A74130A4B74130C8B74120EC3
:10236000CA7401487047C046CC4E00080A7501483F
:102370007047C046CC4E0008531E9A412223CA54CF
:1023800000487047CC4E000863230122CA5401481C
:102390007047C046CC4E000863230022CA5401484F
:1023A0007047C046CC4E0008BFF34F8F034B044A22
:1023B000DA60BFF34F8FC046FDE7C04600ED00E096
:1023C0000400FA05531E9A416423CA54004870471A
:1023D000CC4E000800487047CC4E000800487047BB
:1023E000CC4E000810B50C00100001F02BFA0028AC
:1023F00002DB2070014810BD0020FCE7CC4E000835
:1024000010B50C00100001F057FA002802DB6070D4
:10241000014810BD0020FCE7CC4E000810B50C00B0
:10242000100001F08DFA002802DBA070014810BDF9
:102430000020FCE7CC4E000810B50C00100001F0A5
:1024400051FA002802DBE070014810BD0020FCE7D3
:10245000CC4E000810B50C00100001F003FA002863
:1024600002DBE071014810BD0020FCE7CC4E000803
:1024700010B584B00C006946084801F0E3FB1A343B
:102480006846FDF74BFE0200012800D9012269468B
:10249000200001F00BFB024804B010BDFC51000805
:1024A000CC4E000811B5FFB0002463001B199B003F
:1024B000094A9A58002A0CD00849684601F0C2FB24
:1024C0006846FDF72BFE01006846FFF7D7FC013494
:1024D000EBE703487FB012BDD44E00080852000855
:1024E000CC4E000810B500F01BFB014810BDC046E3
:1024F000CC4E000810B5080000F0C0FA004810BD2E
:10250000CC4E000810B5002805D16D2205492E30AB
:10251000FEF79DFD10BD072202492E20FEF797FD14
:10252000F8E7C0460608000010B5294CA54480AC69
:10253000284B1A6880929B88A380274A27496846BF
:1025400001F080FB6846FDF7E9FD68440C22244950
:1025500001F0ACFA6846FDF7E1FD68441E2221490E
:1025600001F0A4FA6846FDF7D9FD684422001E492F
:1025700001F068FB6846FDF7D1FD68441B4B1C4A1F
:102580001C4901F05FFB6846FDF7C8FD68441A4A24
:102590001A4901F057FB6846FDF7C0FD821F184934
:1025A0006B46981C01F04EFB7B236A46937168468C
:1025B000FDF7B4FD01006846FFF760FC02211148F9
:1025C000FFF75CFC104882239B009D4410BDC04671
:1025D000F8FDFFFFC45200085A5A000010520008CC
:1025E00018520008245200084452000858520008AB
:1025F000645200087052000884520008AC5200086F
:10260000BC52000880520008CC4E0008F0B5D646F7
:102610004F464646C0B58A4CA5440C00894A8A49B3
:1026200006A801F00FFB06A8FDF778FD06AB9C4657
:1026300060441122854901F039FA06A8FDF76EFDC4
:102640000500207801F00AF9020006AB581980490C
:1026500001F0F8FA06A8FDF761FD0500607801F0C9
:1026600036F9020006AB58197A4901F0EBFA06A8D0
:10267000FDF754FD0500A07801F09AF9020006ABC1
:102680005819754901F0DEFA06A8FDF747FD050067
:10269000E07901F0FDF8020006AB58196F4901F02E
:1026A000D1FA06A8FDF73AFD227906AB9C466044B4
:1026B0006B4901F0C7FA06A8FDF730FD0500E07888
:1026C00001F027F9020006AB5819664901F0BAFA81
:1026D00006A8FDF723FDA27906AB9C46604462493B
:1026E00001F0B0FA06A8FDF719FD227A06AB9C4668
:1026F00060445E4901F0A6FA06A8FDF70FFD237EAF
:10270000627E12021A4306AB9C466044584901F0AF
:1027100099FA06A8FDF702FD227B637B1B02134397
:10272000A27B12041343E27B12061A4306AB9C46BB
:102730006044504901F086FA06A8FDF7EFFC227CC0
:10274000637C1B021343A27C12041343E27C120637
:102750001A4306AB9C466044474901F073FA06A849
:10276000FDF7DCFC227D06AB9C466044434901F04A
:1027700069FA06A8FDF7D2FC2223E25C06AB9C4670
:1027800060443F4901F05EFA06A8FDF7C7FC21232B
:10279000E25C013BE35C9A46E17FA57F667F277F91
:1027A000E37E9C46A37E984606AB99464844434642
:1027B000059363460493039702960195009153464F
:1027C000304901F03FFA06A8FDF7A8FC6323E25C5C
:1027D00006AB9C4660442C4901F034FA06A8FDF78C
:1027E0009DFC6423E25C06AB9C466044274901F0F3
:1027F00029FA06A8FDF792FC821F25491A20684491
:1028000001F020FA06AB7B229A711800FDF786FCD6
:1028100006AB9C46604403221E4901F047F906A816
:10282000FDF77CFC010006A8FFF728FB1A48862369
:102830009B009D44E0BCBA46B146A846F0BDC046E8
:10284000E8FDFFFF5A5A000010520008CC52000861
:10285000E0520008F0520008FC5200080C53000837
:1028600020530008305300083C5300084C53000824
:102870005C53000870530008845300089853000804
:10288000AC530008C0530008F0530008005400087F
:10289000BC52000880520008CC4E000870B50400FD
:1028A0000D001600FFF740FE320029002000FFF760
:1028B000ADFE014870BDC046CC4E000870B50500A5
:1028C0000C00022944D8304B1C78002C0FD03E2C31
:1028D00035D82B780A2B11D00D2B0FD0082B1FD0F9
:1028E000294A11190B7101341470002441E01800B9
:1028F00040220021043001F0E2F8E8E7002C38D053
:10290000214D28004430291D220001F0CFF81F4B33
:102910009C802C1900234422A3542B70012428E00E
:10292000002C26D0013CE4B2174B1C701B1900226E
:102930001A7103211648FFF7A1FA002419E00221B9
:102940001448FFF79BFA104B00221A70002410E085
:102950003E2910D80C4E300044300A00290001F006
:10296000A5F80A4B9C80341900234422A3543370E9
:102970000124200070BD02210748FFF77FFA024BB7
:1029800000221A700024F4E77C030020FC030020DE
:10299000E854000880520008EC54000800B591B0DB
:1029A00040220021684601F08AF840216846FFF77E
:1029B0008DFA002801DC11B000BD81B26846FFF736
:1029C0007DFF0128F7D1084B9B88013B3F2B00D9A5
:1029D0003F2301330548C318442200219954443051
:1029E000FFF702FCE7E7C046FC0300207C03002061
:1029F000064B9B69DB07FBD4044B5A6804490A4029
:102A00005A605A6801210A435A6070470020024008
:102A1000FFFFFCFF094B9B69DB07FBD4074B5B689F
:102A2000DB0704D5054B064ADA60064ADA60034A3A
:102A30005168C0239B020B43536070470020024043
:102A4000EFCDAB8905040302016030BF7047000081
:102A500010B5094A93680124234393604B1E002953
:102A600005D00178044A117019000130F6E7024BD5
:102A70001868C0B210BDC0460030024010B5C0B0EA
:102A800004009A22FF216620684401F018F86522AC
:102A90002100684601F00AF865216846FFF7D8FF73
:102AA00065236A46D05472B6FFF7B4FF002407E0EE
:102AB000A0006B461958064BC018FFF7C5FF01343C
:102AC0003F2CF5D9FFF794FF62B640B010BDC04669
:102AD0000001002010B50B4C65212000FFF7B8FF66
:102AE0006523E35C834208D1074C65220549200039
:102AF00000F0DCFF054B1C6010BD0548FFF7BEFF72
:102B0000F2E7C0460001002000050020B8050020C3
:102B100000580008014B18687047C046B8050020EF
:102B200010B50348FFF7AAFFFFF7D4FF10BDC0465A
:102B30000058000882B00F4A116B80204001014309
:102B40001163136B03400193019B0B4B9A68602147
:102B50008A439A609A6820318A439A60074A5A6188
:102B60009A6868398A439A60012252421A6102B017
:102B70007047C0460010024000300240B71DC1043B
:102B8000F0B5DE4657464E464546E0B58BB008AF39
:102B900008239B4608220021380000F090FF1822ED
:102BA000002102A800F08BFF644BDA6A01252A435A
:102BB000DA62DA6A2A400192019ADA6A02218946C7
:102BC0000A43DA62DB6A0B400093009BA026F605FD
:102BD0000B00B1610E339A46B361594B98469D6123
:102BE00080235B00B36180221202B26141465846E5
:102BF0008861544B9A680F218A439A609A685249B7
:102C00000A409A609A6851490A409A60F368032121
:102C10008B432B43F360F36828308343F360F368FE
:102C2000C0229343F36033688B433360336883433C
:102C3000336033689343336008953D7100247C71A1
:102C4000BD713800FDF758FE042308933D717C7177
:102C5000BD713800FDF750FE594608913D717C71F9
:102C6000BD713800FDF748FE494602910395049472
:102C70000594069402A93000FDF7A2FE5146029188
:102C8000039504940594069402A93000FDF798FE7C
:102C90000295039504940594069402A94046FDF715
:102CA0008FFE494602910394069402A94046FDF71F
:102CB00087FE80235B000293039504940594069499
:102CC00002A93000FDF77CFE8022120202920395D9
:102CD00004940594069402A93000FDF771FE5B464A
:102CE0000293039504940594069402A94046FDF7C7
:102CF00067FE534602930394069502A94046FDF7EA
:102D00005FFE202602960394069502A94046FDF731
:102D100057FE0F4BC122920099580E48014099501E
:102D20001E6099580C480140995040221A600BB01F
:102D3000F0BCBB46B246A946A046F0BD001002401A
:102D40000004005000000140FFF0FFFFFF0FFFFFF5
:102D500000E100E0FF00FFFFFFFF00FFF0B5C64607
:102D600000B592B02822002108A800F0A8FE2D4B43
:102D7000596B80204001014359635A6B0240019214
:102D8000019AD96A01221143D962DB6A1A40009282
:102D9000009B202302931E3B984603930326049630
:102DA0000024059406940794A025ED0502A92800A7
:102DB000FDF706FE402702974346039304960594C9
:102DC0000694079402A92800FDF7FAFD80230293D8
:102DD00043460393049605940694079402A9280099
:102DE000FDF7EEFD089482235B0009930A940B948F
:102DF0000C94FC330D93E93BFF3B0E930F9410941E
:102E0000113B1193084C08A92000FDF787FF636868
:102E100010229343636023683B43236012B080BC5D
:102E2000B846F0BD0010024000300140F0B5C64683
:102E300000B590B0464D4024AC618027AF611C22A4
:102E4000002109A800F03BFE424B996B80208002D4
:102E5000014399639A6B02400292029ADA6A02264F
:102E60003243DA62DB6A33400193019B0394049698
:102E7000032398460593002406940794089403A915
:102E80002800FDF79DFD039704964346059306949D
:102E90000794089403A92800FDF792FD2E4BC72143
:102EA00089005A58FF2082435A50802252051A60E6
:102EB00096231B0209930A940B940C940C230D93F4
:102EC0000E9480231B020F93244C09A92000FDF7C8
:102ED00057FFA26880235B011343A3606368204A05
:102EE00013406360A3682A229343A3602368293AAE
:102EF00013432360A368C0229203134080229203ED
:102F000093420DD02168012291432160A1681548A8
:102F10000840802189030143A16021680A4322609F
:102F20000E4B1968802252000A431A609A680121E8
:102F30000A439A601A681F310A431A60044B402200
:102F40009A6140329A6110B080BCB846F0BDC0466C
:102F5000000400500010024000E100E00044004086
:102F6000FFB7FFFFFFFFCFFFF0B5C64600B590B03B
:102F70001C22002109A800F0A2FD2C4DEB6A0124BF
:102F80002343EB62EB6A23400293029B80239B0066
:102F90000393FF3BFF3B9846049303270597069452
:102FA00007940894A026F60503A93000FDF708FD54
:102FB0008023DB000393434604930597069407940C
:102FC000089403A93000FDF7FBFCAA6B802189035C
:102FD0000A43AA63AB6B0B400193019B144C6268DC
:102FE00080239B0413436360E368124A1340E36049
:102FF0002368114A134023602368104A134023605A
:10300000002309930E4A0A920B930C930D930E938F
:103010000F9309A92000FDF72BFDE368094A13402F
:10302000E36010B080BCB846F0BDC046001002405E
:1030300000540040FF7FFFFFFFFFF7FFFFFFFDFF92
:103040001A06100001F8FFFF00B585B0084A116D9F
:103050008023DB020B431365002301937F3302932C
:103060008033039301A90348FDF730FE05B000BD8E
:10307000001002400028004001231F2B06D8012227
:103080009A40824202D80133DBB2F6E7013BD8B264
:103090007047000010B50400FFF7EEFF02000120AA
:1030A0009040241A6401D4406400054BE45A900017
:1030B00080180301181A80008018201810BDC0461F
:1030C0002C50000870B505000E00FDF795FFAC8987
:1030D0002C212720FDF780FF844212D000211020F0
:1030E000FDF754FF20006043FFF7D4FF0400688918
:1030F0004004FFF7CFFF001B074B9C466044306045
:1031000070BD00211020FDF741FF400B830701D166
:10311000403CE3E7053CE1E772D0FFFF30B585B006
:10312000374900238B700A2200F0B2FC002801D03E
:1031300005B030BD00220023009201936846FDF7E0
:103140001DFF304D2B68987800F032FC04002B688E
:10315000D87900F09DFBFA239B00E01804040025B9
:10316000009A019BA4185D412B06200A1843FEF724
:10317000EAFA610A4A02FF2129400B002248002195
:1031800012184B41029203931D4C25000C35200070
:103190001A300622002100F092FC20001630042292
:1031A000694600F083FC20001B30042202A900F0D5
:1031B0007DFC164B1B78A373002229001620FDF717
:1031C00084FE012200211620FDF794FF0120FEF766
:1031D000C1FA00280FD100210F20FDF7D7FE03060A
:1031E000F9D5802200210F20FDF771FF074A1378DF
:1031F000013313709CE70648FEF748FE98E7C04687
:1032000004000020B80500203440000068050020BC
:10321000F8540008F0B5CE46474680B589B00400A2
:103220004D490A22203100F033FC002804D009B0B7
:10323000C0BCB946B046F0BDFDF7C2FE0500FDF7C3
:10324000C5FE060021000A31042207A800F02EFC6A
:1032500021000F31042206A800F028FC761B069BF3
:10326000079A9B1A99463D4B1A681378072B0CD87E
:103270009B003B49CB589F463A4C00250AE03A4C0C
:10328000002507E0394C002504E0384C002501E01A
:10329000374C0025D379002B03D16B07E4081C437E
:1032A000ED08FDF74DFEC11722002B00FDF702F9D6
:1032B00004000D0064220023FDF7FCF82D4A0023D2
:1032C000FDF7B4F88046F1172B4A2C4B3000FDF780
:1032D000F1F806000F004B46D917274A274B121961
:1032E0006B414846FDF7E6F8361A8F413000390049
:1032F000C622D205224BFDF7BDF8040005A901A89E
:10330000FFF7E0FE21001F48FEF7C0FD059D684263
:103310006421FDF785F80C0064212800FCF79AFF72
:10332000010022001848FEF7B1FD4346DA1798184D
:1033300050406421FDF774F80C0064214046FCF70E
:1033400089FF010022001148FEF7A0FD104B5978BB
:103350001048FEF79BFD6AE704000020B805002036
:103360000C50000812DE04002AC90300F69E020079
:10337000504204001319DD11C02ADAEF9310010046
:103380004A8A040008550008185500082855000806
:10339000680500203C55000810B53D4A136801211E
:1033A0008B4313603A4B1B68DB07FBD439490B682E
:1033B000394A1A4080231B0113430B60374A1368B4
:1033C00001210B431360354B1B685B07FBD5334B67
:1033D0005A6833491140802252010A435A601A6DDB
:1033E00001210A431A652D4B1B6D9B07FBD5294A0A
:1033F000116880235B000B431360284B1B6DC022B8
:103400009202134080229202934210D0234B196DF6
:10341000802212030A431A651A6D22490A401A656E
:103420001A6D21491140802292020A431A651B4BF2
:10343000196D8022D2020A431A65DA68F0218A43A4
:10344000DA60DA6819490A40DA60DA6818490A402D
:10345000DA60DA6803218A4302390A43DA600F4BE3
:10346000DA680C231340042BF9D1124C2000FDF72D
:10347000DFFC2000FDF700FD084AD36C0C218B43D4
:1034800004390B43D364D36C0B490B40D36410BD98
:103490000020024000700040FFE7FFFF00100240E4
:1034A000FFE0FFFFFFFFF7FFFFFFFCFFFFF8FFFF5D
:1034B000FFC7FFFF0024F400FFCFFFFF30B583B04C
:1034C0009C4A536807252B4353609B4C626B012336
:1034D0001A436263626B13400193019BA26B8021CC
:1034E00049050A43A263A36B0B400093009BFFF7BF
:1034F00053FF924B1D60E368914A1A4080231B02E0
:103500001343E360FFF73CFBFFF728FCFFF78EFC5B
:10351000FFF72AFDFFF70EFBFFF796FDFEF792FD82
:1035200010220021874800F0CAFAFEF73DFDFFF7A0
:10353000D1FAFEF739FDFEF7FDFC0120FEF7C2FAD5
:10354000431C3BD0FEF712FD7E4C2068FDF7FAFECF
:10355000226813785278013A5B009B189B007A4AE4
:10356000D3181A6C00211E20FDF7B1FD23681B78CB
:10357000764AD25C0B212A20FDF769FD23689A78F0
:10358000042A1FD06F4C64232268D05CFEF7BAFF78
:103590006F4D2800FDF78AFD2800FDF791FD226898
:1035A0006323D35C012B11D06A48FEF771F9032025
:1035B000FDF7FEFF6848FEF769FC6EE06748FEF71E
:1035C00065FCFEE75878FDF74EFDDBE78C20FDF744
:1035D000DFFFE9E734230021D1546148FEF756FCB0
:1035E000584B1B6863229A5C012A06D06322012192
:1035F00099545C48FEF74AFC54E062320021995429
:103600005948FEF743FC8C20FDF7C2FF5148FEF7F6
:103610003FF947E0FFF7C2F90220FEF7E7FC45E07B
:103620000820FEF7F9FC514D514C2378AB708022F5
:1036300000210F20FDF74BFD002229000C20FDF793
:1036400044FC012200210C20FDF754FD0220FEF76E
:1036500081F823780133237034E0A1B2444800227A
:103660000430FDF763FC47E0E1B241480430FFF766
:10367000D1FD09E03F4A00210F20FDF728FD3E481B
:10368000FEF704FCFEF734F90B20FEF7AFFC2D4BE0
:103690001B6863229A5C012A3FD0344A3423D35CEE
:1036A000002B97D1FEF79EFB0028B3D1254B1A685B
:1036B0006323D35C012BB3D00120FEF7ADFC0020C7
:1036C000FEF7B6F800210F20FDF760FC2B4B1842E7
:1036D000F8D04304CED58022D20100210F20FDF77F
:1036E000F6FC2748FEF7D2FB00211020FDF74EFC28
:1036F0007F240440402CB0D91D4B9A795A70002287
:103700009A71104B1A686323D35C012BACD0E1B2E1
:1037100017480430FFF702FDB6E7187B5A7B120208
:103720000243987B00040243D87B00061043FEF757
:10373000ADFAB2E7005801400010024010E000E08E
:10374000FF7FFFFFB80500202C500008AC50000898
:1037500034400000E8FD00005855000848550008B6
:1037600064550008A45500087C550008040000209A
:103770006805002000902724EC55000800D027247D
:10378000CC5500087047FEE77047704710B5FEF74C
:10379000C3FB10BD10B5054B5B69DB0700D410BD42
:1037A000024B01225A61FEF759FCF8E70004014080
:1037B00010B50A4B5B695B0704D4084B5B691B07B8
:1037C00006D410BD054B04225A61FEF741FCF4E714
:1037D000024B08225A61FEF797F8F2E70004014015
:1037E00010B5FEF74FFC10BD104B19688022520037
:1037F0000A431A60DA680E490A40DA601A680D490D
:103800000A401A609A6801218A439A601A680A4934
:103810000A401A60DA6809490A40DA6000221A612F
:10382000074B802212059A607047C0460010024084
:103830000C40FF88F6FFF6FEFFFFFBFFFFFF02FFD5
:1038400000ED00E0072803D88300034AD3589F46C1
:10385000012040427047C046D850000810B5FFF71D
:10386000F1FF10BD084B984209D0084B984208D090
:103870006E2802D00120404270470020FCE7012062
:10388000FAE70220F8E7C046520300009A1A000047
:10389000012808D0022808D0002802D00120404288
:1038A00070476E30FCE70248FAE70248F8E7C04686
:1038B000520300009A1A0000102803D0402803D1B8
:1038C0003E3870470120FCE701204042F9E701281B
:1038D00003D0022803D13E3070471020FCE70120BE
:1038E0004042F9E720280AD005DC082809D0102832
:1038F00009D10F387047402808D13D38FAE7022037
:10390000F8E70020F6E701204042F3E701204042BB
:10391000F0E702280AD005DC002809D0012809D1E7
:103920000F307047032808D13D30FAE72020F8E730
:103930000820F6E701204042F3E701204042F0E78B
:103940008023DB00984221D010DC80235B0098426A
:103950001ED005DD80239B00984220D1342004E056
:10396000402817D0802817D16C38704780231B015E
:10397000984217D080235B01984201D10C20F4E7D4
:10398000C023DB0098420FD11820EEE70820ECE7B7
:103990002420EAE70420E8E701204042E5E701208F
:1039A0004042E2E72820E0E701204042DDE7000056
:1039B0000438302816D880000D4B1B589F468020B5
:1039C000400101E0C020C00070478020C000FBE73C
:1039D00080208000F8E780204000F5E78020F3E7B2
:1039E0004020F1E701204042EEE780200001EBE7B4
:1039F000F85000080D488546002103E00C4B5B5849
:103A0000435004310B480C4B42189A42F6D30B4AF0
:103A100002E0002313600432094B9A42F9D3FFF706
:103A2000E3FE00F011F8FFF749FDFEE7002000205B
:103A30007858000800000020A400002000020020A8
:103A4000D8050020FEE7000070B500260C4D0D4C97
:103A5000641BA410A64209D1002601F0A7F90A4D63
:103A60000A4C641BA410A64205D170BDB300EB58EC
:103A700098470136EEE7B300EB5898470136F2E776
:103A800070580008705800087058000874580008F2
:103A900030B500240139A24201D1002005E0035DC8
:103AA00001340D5DAB42F6D0581B30BD002310B57C
:103AB0009A4200D110BDCC5CC4540133F8E7030036
:103AC0008218934200D1704719700133F9E7000062
:103AD00070B50500002910D00C1F2368002B00DAF8
:103AE000E418280000F038F91D4A1368002B05D1AE
:103AF00063601460280000F037F970BDA34208D954
:103B0000216860188342F3D118685B68411821600E
:103B1000EEE71A005B68002B01D0A342F9D91168C7
:103B20005018A0420BD12068091850181160834228
:103B3000E0D118685B68411811605360DAE7A04271
:103B400002D90C232B60D5E721686018834203D18A
:103B500018685B684118216063605460CAE7C0461A
:103B6000AC050020F8B50323CD1C9D4308350600A5
:103B70000C2D1FD20C25A9421ED8300000F0ECF805
:103B800025490A681400002C1AD1244F3B68002BE9
:103B900004D12100300000F043F8386029003000E3
:103BA00000F03EF8431C2BD10C233000336000F0B2
:103BB000DBF803E0002DDEDA0C2333600020F8BDD3
:103BC00023685B1B19D40B2B03D92360E4182560F1
:103BD00003E06368A2420ED10B60300000F0C4F82D
:103BE000200007220B30231D9043C21A9842E6D0D2
:103BF0001B1AA350E3E75360EFE722006468C2E7B3
:103C00000323C41C9C43A042E1D0211A300000F0E1
:103C100007F8431CDBD1C7E7AC050020B005002046
:103C2000002370B5064D040008002B6001F0AEF8CB
:103C3000431C03D12B68002B00D0236070BDC0460D
:103C4000C80500200EB400B50B499CB01DAB029016
:103C50000690079104910948094904CB0591006831
:103C600002A9019300F0EAF80023029A13701CB035
:103C700008BC03B01847C046FFFFFF7F400000208C
:103C80000802FFFF0EB430B581239CB06A461FAC1A
:103C90009B0020CC938202900690FCF73FFA0B4BDE
:103CA0006A460B9300230390079009480F931493DF
:103CB000013BD38202A923002A000068019400F08E
:103CC00019FA1CB030BC08BC03B01847D53C00083A
:103CD000400000200020704703000A7801311A706C
:103CE0000133002AF9D1704730B5140005001A00DD
:103CF0009BB0002C05DA8B230360012040421BB0EF
:103D000030BD822368469B0083810023009104918B
:103D10009C4200D0631E02930593012369465B42D7
:103D2000CB8128001E9B00F089F8431C01DA8B230D
:103D30002B60002CE3D00023009A1370DFE7000013
:103D400007B5009313000A00010002480068FFF75E
:103D5000CBFF0EBD4000002010B5024800F0C8FFA8
:103D600010BDC046D005002010B5024800F0C1FFCC
:103D700010BDC046D0050020F0B58E6885B00700A4
:103D80000C00039201939E423CD890238A89DB0069
:103D90001A4234D00325096923685B1A02936369C8
:103DA00002985D43EB0F5D19019B6D1001331B18E9
:103DB000AB4200D91D00530532D529003800FFF76A
:103DC000D1FE061E09D10C233B6040230120A289AD
:103DD00040421343A38105B0F0BD029A2169FFF769
:103DE00065FEA389144A1A4080231343A381029BD2
:103DF0002661F61826606561019EED1AA560019B9B
:103E00009E4200D9019E32000399206800F07DFF98
:103E1000A36800209B1BA36023689E192660DAE735
:103E20002A00380000F084FF061EE0D13800216926
:103E3000FFF74EFEC7E7C0467FFBFFFFF0B5A1B01E
:103E400003901D008B890F0016001B0611D50B690E
:103E5000002B0ED14021FFF785FE38603861002825
:103E600005D10C23039A0138136021B0F0BD402323
:103E70007B61002308AC6361203363761033A37643
:103E8000079535002B78002B01D0252B47D1AB1B94
:103E90000593B5420CD0320039000398FFF76CFF50
:103EA000431C00D1AEE06269059B944663446361A4
:103EB0002B78002B00D1A5E0012200235242626042
:103EC00004A9543252186E1C2360E360A36013707F
:103ED000A36505223178544800F00CFF751C0028BA
:103EE0001FD12268D30604D5532304A95B182021CF
:103EF0001970130704D5532304A95B182B211970DB
:103F000033782A2B16D0350000210A20E3682A785E
:103F10006E1C303A092A4ED9002911D117E001351B
:103F2000B0E7414B2268C01A0123834013432E009F
:103F30002360CEE7079B191D1B680791002B01DB4F
:103F40000B9304E05B42E3600223134323602B786E
:103F50002E2B0AD16B782A2B35D1079B02351A1DDF
:103F60001B680792002B2BDB0993304E0322300095
:103F7000297800F0BFFE002806D04023801B834034
:103F800022680135134323602978062228486E1CD5
:103F9000217600F0AFFE00283CD0264B002B25D127
:103FA0000722079B07339343083307936369049AF7
:103FB0009B18636165E74343350001219B18A6E721
:103FC00001235B42D0E700230A201A000135636019
:103FD00029786E1C3039092903D9002BC5D00992E4
:103FE000C3E74243350001235218F1E707AB0093C2
:103FF0003A002100104B039800E000BF0490049B9E
:104000000133D3D1BB890D985B0600D42DE7012085
:1040100040422AE707AB00933A002100064B039881
:1040200000F050FAEAE7C0461D5700082357000881
:104030002757000800000000793D000870B5140003
:104040004B1C03D101256D42280070BD93892022AD
:104050009343626BA381CEB26368CDB2002A10D0C5
:10406000A26B9A4207DD2368013B23601E706368E0
:1040700001336360E8E7210000F0F6FD0028F2D08C
:10408000E0E721692268002907D0914205D2511E3C
:104090000878A84201D12160EAE723642300443371
:1040A00063630323A36323004633E2631E7023602C
:1040B0000123DEE710B50C00496B00290ED0230068
:1040C0004433994201D0FFF703FD0020236C606365
:1040D0006360834202D0E36B236010BD236901203B
:1040E00023600023A289636020331343A3814042ED
:1040F000F3E70000F0B5B54C0500A5440C00002125
:104100004891499105A94A91BE21B148490045AE5F
:104110007050B048043145AE70500493019113784B
:104120000093002B00D14FE1AB4F0820F95C08232E
:10413000561C0B4001421ED06368002B11DD082184
:1041400023681A78BA5C0A4201D13200E7E7499A3B
:10415000013300920132499262682360013A626041
:10416000EAE7019A45AB9B58210028000093984745
:104170000028E4D0E9E70099252964D147934593C5
:1041800053782A2B02D11A3B4593961C37000A20FC
:1041900039787B1C02930B00303B092B1FD98F4EC3
:1041A0000322300000F0A6FD002807D00123801B69
:1041B0008340459A029F1343039245933B787E1CAC
:1041C000782B07D8572B12D8252B3CD036D8002B6C
:1041D00000D1F6E003234B930733469376E0479BE9
:1041E000029F03934343303B5B184793D0E718008B
:1041F00058382028EED8FBF799FF5100EDFFEDFF6E
:104200008600EDFFEDFFEDFFEDFFEDFFEDFFEDFFB4
:1042100093006000240024002400EDFF6200EDFF05
:10422000EDFFEDFFEDFF9D0065004B00EDFFEDFFA5
:104230009B00EDFF6000EDFFEDFF5100453B022BC1
:10424000C8D8052341E06368002B0FDD236800997F
:104250001A788A4200D0B7E0013362682360499B34
:10426000013A00930133626049936EE7019A45ABCE
:104270009B5821002800029398470028E6D04898D0
:10428000002800D099E00138A7239B009D44F0BD91
:10429000459A0092202200990A434592459A00923D
:1042A0008022009992000A434592102246926E2283
:1042B0009A429B415B42033307E00A22F6E7002360
:1042C0004693F8E708234693043B4B936368002B1F
:1042D0003FDD459B00935B0606D423683E491A7870
:1042E0008A5C08210A423ED14B9B022B51DC220002
:1042F000280004AB45A900F0F7F9012864D0022892
:1043000000D022E7BBE7310005A800F04FFB459B3A
:10431000060000934023009A134345930123D4E7FA
:10432000459B00934023009A134345930023CCE719
:104330000223CAE74598C30600D506E7049B499ABD
:10434000191D04911B68C70701D51A80FDE61A6084
:10435000FBE6019A45AB9B58210028000093984743
:104360000028B6D08BE7499A0092013249926268E0
:10437000013A6260002A02DD01332360ADE7019A51
:1043800045AB9B5821002800009398470028A4D0F3
:1043900075E7042B06DC2200280004AB45A900F0D9
:1043A00001FAAAE70E4B002B00D1CEE6220028002E
:1043B00004AB45A900E000BF9FE7A3895B0600D4DA
:1043C00062E7012040425FE748985DE764FDFFFF38
:1043D0003D400008B54000081D560008235700085E
:1043E00000000000F7B5150001938A680B690C0006
:1043F0000090934200DA130022002B6043321278BF
:10440000002A01D001332B6023689B0602D52B685C
:1044100002332B602268062317001F401A4227D060
:10442000230043331B785A1E93412268920630D4EE
:10443000220001990098089E4332B047431C25D0C2
:10444000062320682A68E16800250340042B03D175
:104450008D1AEB43DB171D40A3682269934201DDEF
:104460009B1AED180027BD4220D1002010E0013733
:10447000E3682A689B1ABB42D2DD2200012301991E
:104480000098089E1932B047431CF0D101204042E9
:10449000FEBD3020E1184331087021005A1C45311F
:1044A0000978A218433202331170C1E722000123B8
:1044B00001990098089E1A32B047431CE6D0013794
:1044C000D1E70000F0B58BB006920A0043320793A3
:1044D000059004920A7E0C00109B782A06D8622A66
:1044E00008D8002A00D1C0E0582A52D0260042360F
:1044F000327022E0100063381528F7D8FBF716FE5B
:1045000016001F00F6FFF6FFF6FFF6FF1F00F6FF8E
:10451000F6FFF6FFF6FFA80036009A00F6FFF6FF5A
:10452000B900F6FF3600F6FFF6FF9E0026001A6877
:104530004236111D1960136833700123A7E0086823
:1045400019680A1D05060BD50D681A60002D03DADF
:104550002D23049A6D421370614B0A27039332E0B6
:104560000D681A604106F1D52DB2EFE70D681968A4
:10457000081D18602E0601D50D6803E06D06FBD5F9
:104580000D68ADB2564B0A2703936F2A17D108273F
:1045900015E045310A70524A03921A68216820CA10
:1045A0001A60080650D5CB0702D520231943216095
:1045B0001027002D03D1202322689A432260230074
:1045C000002243331A706368A360002B03DB0422CC
:1045D000216891432160002D02D1049E002B0CD054
:1045E000049E28003900FBF731FE039B013E5B5C13
:1045F00033702B0005009F42F3D9082F09D123689F
:10460000DB0706D563682269934202DC3023013E52
:104610003370049B9B1B2361079B2100009305982B
:10462000069B09AAFFF7DEFE431C35D1012040425C
:104630000BB0F0BD202209680A43226022007821D5
:1046400045321170274AA7E74806ACD5ADB2AAE7B4
:104650001A680D68101D4969186013682E0601D587
:10466000196002E06D06FBD519800023049E2361CA
:10467000D2E71A68111D19601668002130006268BF
:1046800000F038FB002801D0801B60606368236164
:104690000023049A1370BFE7236932000699059836
:1046A000079DA847431CC1D023689B0715D4099BCD
:1046B000E0689842BCDA1800BAE7220001230699A4
:1046C0000598079E1932B047431CAFD00135E36807
:1046D000099A9B1AAB42F0DCE9E70025F7E7C046F0
:1046E0002E5700083F570008F7B515008A680C00E0
:1046F0000190002A05D189690132002900D0023ACF
:10470000A2602268D20603D41A68111D19601768C6
:104710000026A069002813D0012808D12B686269FF
:104720001B78D35C002B0BD1002E27D1FEBD0228B5
:1047300024D12B681A4A1B78D35C082213421DD15E
:10474000102223680136134203D12B681B783B707B
:1047500001372A686B6801322A60A268013B013A7E
:104760006B60A260002A09D0002BD2DCC0235B0062
:104770002900E358019898470028CAD022681023DE
:10478000110019401A4206D1E3680133E360A369BE
:10479000002B00D03970236900209E192661C5E7DF
:1047A0001D560008F0B50C008DB00293794B160031
:1047B000059009AA23CB23C2774B0693A369032B49
:1047C00001D0764B0693AE220020A3685200591EFA
:1047D0000490914205D95E3BFF3B04935E23FF3377
:1047E000A36023001C330193D023002722681B0100
:1047F00013432360019B0393336809A81978BB0016
:104800000222185800F076FA00282BD0012F62D12E
:104810006368002B06D1083322686360F933FF33E5
:10482000134323605E4B226813402360A3685A1E23
:10483000A260002B16D033685A1C32601B78039A92
:1048400013707368551C013B73600395002B09DCE2
:10485000C0235B00E3583100059807939847002870
:1048600000D081E00137032FC6D16368002B01D14E
:104870000A3363601021002763686069C91A494BD5
:10488000C91800F093F8039DA36822680393002BD6
:1048900041D03168636908781B5C002B3BD030281D
:1048A00029D180231B011A4225D0049B0137002BFC
:1048B00005D01A00039B013A01330492A360736888
:1048C000013B7360002B1DDD336801333360A36847
:1048D000013BA360D8E7022FA8D1C0218023226822
:1048E000C90011409B009942BFD1F13BFF3B63607F
:1048F000F033134399E72C4B134023600B782B7054
:104900000135DCE7C0235B00E358310005980393D1
:1049100098470028DBD02368DB050ED5019B9D421C
:1049200007D9BE23013D5B0032002978E358059882
:104930009847019B01209D4229D0216810230A003D
:104940001A4019421CD12A70636801990598069E85
:10495000B047029B21681B688A0607D51A1D029979
:104960000A601B68186008E00027D4E71A1DCE070C
:10497000F5D502990A601B681880E3680133E3608B
:104980000020019BED1A2369EF19DF1927610DB093
:10499000F0BDC046BC510008414B0008614C000806
:1049A000FFFAFFFF59570008FFF6FFFFF0B50B783D
:1049B00004005E2B0CD0481C00212200651CFF3532
:1049C00011700132AA42FBD1002B05D10138F0BD94
:1049D0004B78881C0121F0E701222D26514002006E
:1049E000E1541578501C2D2D09D05D2DEFD0002DF0
:1049F00001D11000EBE72B00F1E73300EFE755782A
:104A00005D2DFAD0AB42F8DC18000232013021549F
:104A10008542FBDC00205F1CAB4201DAE81A01385A
:104A20003B18DEE7F0B587B01E00059001910292B9
:104A3000012B45D00800242B42D83F4B08229C462E
:104A4000030061461C78451C095D28000F001740D3
:104A50001142F5D12D2C3AD101272C789D1C002E26
:104A600065D0102E09D1302C07D120222B7893430A
:104A7000582B57D110266C780235304B3100FB187B
:104A800018000393FBF7E2FB002301228446180081
:104A9000049152422100303909291DD80C00A64248
:104AA00028DD002B24DB1300844506D302D10499B2
:104AB000A14202DB0123704320182C780135E9E77D
:104AC00000F010F916230360002007B0F0BD2B2C76
:104AD000C5D12C789D1CC2E721004139192901D884
:104AE000373CDCE721006139192903D8573CD6E768
:104AF0001300E2E7002B09DA2223059A03981360DA
:104B0000029B002BE1D06B1E019307E0002F00D029
:104B10004042029A002AD8D0002BF4D1029B019A7D
:104B20001A60D2E73024002EA7D10836A5E7302C32
:104B30009BD00A26A1E7C0461D560008FFFFFF7F55
:104B400010B5FFF76FFF10BDF0B51E00434B87B0E7
:104B50000F0001919C460821059002923B0062469D
:104B60001C787D1C105D2F0002000A400842F5D120
:104B70002D2C3AD101272C789D1C002E69D0102EA7
:104B800009D1302C07D120222B789343582B5BD1AD
:104B900010266C780235012031004042FBF7D0FA34
:104BA0000390012031004042FBF750FB00230491A9
:104BB0000121012218008C46524221003039092976
:104BC0001AD80C00A64225DD002B21DB0399130027
:104BD000814207D303D104991300A14202DB63464B
:104BE000704320182C780135E7E72B2C01D01700F3
:104BF000C3E72C789D1CFAE721004139192901D817
:104C0000373CDFE721006139192903D8573CD9E740
:104C10001300E7E7002B09DA22230120059A40421E
:104C20001360029B002B09D107B0F0BD002F00D00C
:104C30004042029A002AF7D0002B01D06B1E01934C
:104C4000029B019A1A60EFE73024002EA3D10836A8
:104C5000A1E7302C97D00A269DE7C0461D560008D4
:104C600010B5FFF771FF10BD0B00F7B54D6B443366
:104C70000C009D421CD18026F6003100FEF772FF29
:104C8000002802D101204042FEBD23006063A663DC
:104C900046331A78104BC254230045331A780F4B11
:104CA000C2542A780E4BC254C01820600020EBE793
:104CB0008E6B290073001A00019300F039F8051E6D
:104CC000E0D08719010032003800FEF7EFFE019BAB
:104CD00027606563A363E9E7FF030000FE030000AC
:104CE000FD030000014B18687047C04640000020DB
:104CF00070477047C9B28218904201D100207047B6
:104D000003788B42FBD00130F6E710B5884202D918
:104D10008B18984203D3002307E08B5C8354013A3D
:104D2000FBD210BDCC5CC45401339A42FAD1F8E7EF
:104D3000F8B507000D001600002905D11100FEF797
:104D400011FF04002000F8BD002A03D1FEF7C0FEC9
:104D50003400F7E700F012F82C00B042F2D2310034
:104D60003800FEF7FFFE041EECD029003200FEF7EB
:104D70009DFE29003800FEF7ABFEE3E70B1F1B6822
:104D8000181F002B01DA0B58C0187047054A0300A2
:104D90001168002901D1044911601068C31813601B
:104DA0007047C046B4050020D8050020F8B5C046BD
:104DB000F8BC08BC9E467047F8B5C046F8BC08BCB5
:044DC0009E46704754
:104DC40070110008D0120008B0120008B8120008D0
:104DD400C0120008C81200088216000856160008FF
:104DE4009416000864160008641600086416000887
:104DF40064160008A6160008C21600086416000807
:104E040064160008D6160008E2160008EE1600081C
:104E140000170008000098599859EA518E421E451F
:104E2400142E0080EA51F4283233E03A703DE03A1F
:104E3400C235842BC2353233C235C235AE47E03A6F
:104E44005038A230503800003C001A3152001A3356
:104E54009A001A351D011A376B003B31BE003B33F3
:104E64005E013B3596023B3787008D000A00160031
:104E740001000600010002004010080007A90225F5
:104E840070889B88D8BC00001E265626BEBE000033
:104E940007040009080540080910400808054008EF
:104EA4001D0400081D040008405C0000A05C040010
:104EB400C06C0800805C0400E33F1E00E07D1E001F
:104EC40000000102030400056F6B0D0A00000000DE
:104ED4000C540008000000009D2800081454000829
:104EE40000000000A52400081C5400080000000075
:104EF400F52400082454000800000000E5240008FC
:104F04002C54000800000000E52300083454000875
:104F140000000000012400083854000800000000CC
:104F24001D24000840540008000000003924000833
:104F34004454000800000000E52200084C54000816
:104F440000000000F522000854540008000000008E
:104F540055240008605400080000000005230008E0
:104F6400685400080000000015230008705400086D
:104F740000000000292300088054000800000000FD
:104F8400D52300088854000800000000DD23000831
:104F940090540008000000003D2300089C540008C1
:104FA4000000000055230008A85400080000000079
:104FB4006D230008B45400080000000071240008A8
:104FC400BC5400080000000079230008C8540008FD
:104FD4000000000089230008D054000800000000ED
:104FE40099230008D854000800000000A9230008F1
:104FF400E054000800000000C52300080000000081
:1050040000000000000000008A3200087832000826
:10501400903200087E320008903200088432000882
:105024008A3200088432000800000D001A002600AD
:1050340033003F004A00550060006B00760080009A
:105044008A0094009D00A600B000B900C100CA0007
:10505400D200DB00E300EB00F300FA0002010901D7
:10506400110118011F0126010000000000000000CA
:10507400757575756767676775757575676767674C
:105084006F6F6F6F8B8B8B8B5F5F5F5F9A9A9A9A50
:1050940048484848858585850000000000000000D8
:1050A40092929292D1D1D1D100C9C2C595B5009343
:1050B400030406080C101820300000000000000053
:1050C40000000000010203040607080900000000B4
:1050D400010203045038000854380008543800080A
:1050E4005438000854380008543800085038000870
:1050F40054380008E0390008E4390008E4390008AD
:10510400E4390008CA390008E4390008E439000821
:10511400E4390008BE390008E4390008E43900081D
:10512400E4390008E4390008E4390008E4390008E7
:10513400E4390008DC390008E4390008E4390008DF
:10514400E4390008C4390008E4390008E4390008E7
:10515400E4390008E4390008E4390008E4390008B7
:10516400E4390008E4390008E4390008E4390008A7
:10517400E4390008D6390008E4390008E4390008A5
:10518400E4390008EA390008E4390008E439000881
:10519400E4390008E4390008E4390008E439000877
:1051A400E4390008E4390008E4390008E439000867
:1051B400E4390008D0390008505700085357000854
:1051C400565700086572726F72200D0A00000000C5
:1051D400253130732025640020696E636F6D706122
:1051E4007469626C65206D6F646500002066756E7D
:1051F4006374696F6E00000054414749442025736D
:10520400000000002573200D0A0000004A532530D9
:10521400345800007B22496E666F223A7B0D0A00E7
:1052240022446576696365223A2244574D31303011
:1052340034432053532D545752222C0D0A0000009E
:105244002256657273696F6E223A222573222C0DE1
:105254000A00000031333A32343A3231000000009F
:105264004A756E203137203230323100224275695E
:105274006C64223A222573202573222C0D0A000027
:105284004457313030302044657669636520447278
:10529400697665722056657273696F6E2030352E9B
:1052A40030312E303100000022447269766572225A
:1052B4003A222573227D7D002530345800000000F9
:1052C400312E302E300000007B22555742205041B1
:1052D40052414D223A7B0D0A00000000224348410E
:1052E4004E223A25642C0D0A00000000225052463A
:1052F400223A25642C0D0A0022504C454E223A25B0
:10530400642C0D0A000000002244415441524154CF
:1053140045223A25642C0D0A00000000225458430B
:105324004F4445223A25642C0D0A00002250414383
:10533400223A25642C0D0A00224E53534644223A45
:1053440025642C0D0A000000225048524D4F44455C
:10535400223A25642C0D0A0022534D415254504FD9
:10536400574552223A25642C0D0A000022424C492A
:105374004E4B46415354223A256C752C0D0A0000BD
:1053840022424C494E4B534C4F57223A256C752CB4
:105394000D0A00002252414E444F4D4E45535322B4
:1053A4003A25642C0D0A00002254414749445345D0
:1053B40054223A25642C0D0A00000000225441476F
:1053C4004944223A307825303278253032782530F5
:1053D40032782530327825303278253032782530CD
:1053E4003278253032782C0D0A00000022545752AE
:1053F4005F524F4C45223A25640D0A00224E4C4F11
:1054040053223A25647D7D0053544154000000002A
:1054140048454C5000000000534156450000000030
:10542400524553544F5245004348414E000000003A
:1054340050524600504C454E00000000504143007D
:105444005458434F444500004E5353464400000013
:105454004441544152415445000000005048524DCB
:105464004F444500534644544F000000534D4152AD
:1054740054504F574552454E000000005443574D79
:10548400000000005443464D00000000424C494EC9
:105494004B46415354000000424C494E4B534C4F31
:1054A4005700000052414E444F4D4E4553530000A7
:1054B400544147494400000054414749445345542A
:1054C40000000000494E495400000000524553506A
:1054D4000000000052455345540000004E4C4F5309
:1054E400000000001B5B4B004572726F723A200D86
:1054F4000A0000004552522054585F444C59454418
:105504000A000000446973745F636D3A20253464B3
:105514002000000052583A202534642E253264209D
:1055240000000000436C6B50504D3A202532642E2D
:1055340025326420000000005365714E3A20253363
:10554400640D0A00494E4954204641494C45440AD9
:105554000D0000005374617274696E670A000000E4
:105564005573657220627574746F6E207072657302
:105574007365640A0D000000537769746368696E8B
:10558400672066726F6D205457525F494E4954200C
:10559400746F205457525F524553500A0D00000057
:1055A400537769746368696E672066726F6D2054FF
:1055B40057525F5245535020746F205457525F49DD
:1055C4004E49540A0D00000041206672616D652049
:1055D400686173206265656E2072656365697665CE
:1055E400642E200A0D000000436C656172696E67C9
:1055F400206572726F72202F2074696D656F7574E7
:10560400206576656E74732E2052657365747469B3
:105614006E672E2E200A0D0000202020202020203E
:10562400202028282828282020202020202020204E
:10563400202020202020202020881010101010105E
:1056440010101010101010101004040404040404AA
:105654000404041010101010101041414141414144
:105664000101010101010101010101010101010126
:105674000101010110101010101042424242424236
:1056840002020202020202020202020202020202F6
:10569400020202021010101020000000000000009E
:1056A40000000000000000000000000000000000F6
:1056B40000000000000000000000000000000000E6
:1056C40000000000000000000000000000000000D6
:1056D40000000000000000000000000000000000C6
:1056E40000000000000000000000000000000000B6
:1056F40000000000000000000000000000000000A6
:105704000000000000000000000000000000000095
:10571400000000000000000000232D302B20006852
:105724006C4C00656667454647003031323334358A
:1057340036373839414243444546003031323334F8
:105744003536373839616263646566002B2D003065
:105754003000785800412D46612D66383930313299
:1057640033343536375D00000000000000000000CF
:105774000000000000000000000000000000000025
:105784000000000000000000000000000000000015
:105794000000000000000000000000000000000005
:1057A40000000000000000000000000000000000F5
:1057B40000000000000000000000000000000000E5
:0857C4000000000000000000DD
:1058000002021400090900020000411064000000B7
:10581000881300000A0000000100000000000000E2
:1058200000000044573130303020446576696365AC
:10583000204472697665722056657273696F6E20B6
:1058400030352E30312E30310000000000000000D5
:105850000000000000000000000000000000000048
:05586000000000000043
:085868009CACFF7F0100000071
:04587000E900000843
:04587400C100000867
:105878001C020020418800CADE57415645E000005E
:10588800418800CADE56455741E10000000000008B
:1058980000000000418800CADE56455741E100007B
:1058A80000000000000000000100000000002000CF
:1058B80044000020000000008C570008AC57000886
:1058C8006C57000800000000000000000000000005
:1058D80000000000000000000000000000000000C0
:1058E80000000000000000000000000000000000B0
:1058F80000000000000000000000000000000000A0
:10590800000000000000000000000000000000008F
:04591800000000008B
:10591C00000000000000000000000000000000007B
:10592C00000000000000000000000000000000006B
:10593C00000000000000000000000000000000005B
:10594C00000000000000000000000000000000004B
:10595C00000000000000000000000000000000003B
:10596C00000000000000000000000000000000002B
:10597C00000000000000000000000000000000001B
:10598C00000000000000000000000000000000000B
:10599C0000000000000000000000000000000000FB
:1059AC0000000000000000000000000000000000EB
:1059BC0000000000000000000000000000000000DB
:1059CC0000000000000000000000000000000000CB
:1059DC0000000000000000000000000000000000BB
:1059EC0000000000000000000000000000000000AB
:1059FC00000000000000000000000000000000009B
:105A0C00000000000000000000000000000000008A
:04000005080039F5C1
:00000001FF
